{
  "_format": "hh-sol-artifact-1",
  "contractName": "BioFiCollection",
  "sourceName": "contracts/BioFiCollection.sol",
  "abi": [
    {
      "inputs": [],
      "stateMutability": "nonpayable",
      "type": "constructor"
    },
    {
      "anonymous": false,
      "inputs": [
        {
          "indexed": true,
          "internalType": "address",
          "name": "owner",
          "type": "address"
        },
        {
          "indexed": true,
          "internalType": "address",
          "name": "approved",
          "type": "address"
        },
        {
          "indexed": true,
          "internalType": "uint256",
          "name": "tokenId",
          "type": "uint256"
        }
      ],
      "name": "Approval",
      "type": "event"
    },
    {
      "anonymous": false,
      "inputs": [
        {
          "indexed": true,
          "internalType": "address",
          "name": "owner",
          "type": "address"
        },
        {
          "indexed": true,
          "internalType": "address",
          "name": "operator",
          "type": "address"
        },
        {
          "indexed": false,
          "internalType": "bool",
          "name": "approved",
          "type": "bool"
        }
      ],
      "name": "ApprovalForAll",
      "type": "event"
    },
    {
      "anonymous": false,
      "inputs": [
        {
          "indexed": true,
          "internalType": "address",
          "name": "previousOwner",
          "type": "address"
        },
        {
          "indexed": true,
          "internalType": "address",
          "name": "newOwner",
          "type": "address"
        }
      ],
      "name": "OwnershipTransferred",
      "type": "event"
    },
    {
      "anonymous": false,
      "inputs": [
        {
          "indexed": true,
          "internalType": "address",
          "name": "from",
          "type": "address"
        },
        {
          "indexed": true,
          "internalType": "address",
          "name": "to",
          "type": "address"
        },
        {
          "indexed": true,
          "internalType": "uint256",
          "name": "tokenId",
          "type": "uint256"
        }
      ],
      "name": "Transfer",
      "type": "event"
    },
    {
      "inputs": [
        {
          "internalType": "address",
          "name": "to",
          "type": "address"
        },
        {
          "internalType": "uint256",
          "name": "tokenId",
          "type": "uint256"
        }
      ],
      "name": "approve",
      "outputs": [],
      "stateMutability": "nonpayable",
      "type": "function"
    },
    {
      "inputs": [
        {
          "internalType": "address",
          "name": "owner",
          "type": "address"
        }
      ],
      "name": "balanceOf",
      "outputs": [
        {
          "internalType": "uint256",
          "name": "",
          "type": "uint256"
        }
      ],
      "stateMutability": "view",
      "type": "function"
    },
    {
      "inputs": [],
      "name": "baseExtension",
      "outputs": [
        {
          "internalType": "string",
          "name": "",
          "type": "string"
        }
      ],
      "stateMutability": "view",
      "type": "function"
    },
    {
      "inputs": [],
      "name": "baseURI",
      "outputs": [
        {
          "internalType": "string",
          "name": "",
          "type": "string"
        }
      ],
      "stateMutability": "view",
      "type": "function"
    },
    {
      "inputs": [],
      "name": "cost",
      "outputs": [
        {
          "internalType": "uint256",
          "name": "",
          "type": "uint256"
        }
      ],
      "stateMutability": "view",
      "type": "function"
    },
    {
      "inputs": [
        {
          "internalType": "uint256",
          "name": "tokenId",
          "type": "uint256"
        }
      ],
      "name": "getApproved",
      "outputs": [
        {
          "internalType": "address",
          "name": "",
          "type": "address"
        }
      ],
      "stateMutability": "view",
      "type": "function"
    },
    {
      "inputs": [
        {
          "internalType": "address",
          "name": "owner",
          "type": "address"
        },
        {
          "internalType": "address",
          "name": "operator",
          "type": "address"
        }
      ],
      "name": "isApprovedForAll",
      "outputs": [
        {
          "internalType": "bool",
          "name": "",
          "type": "bool"
        }
      ],
      "stateMutability": "view",
      "type": "function"
    },
    {
      "inputs": [],
      "name": "maxMintAmount",
      "outputs": [
        {
          "internalType": "uint256",
          "name": "",
          "type": "uint256"
        }
      ],
      "stateMutability": "view",
      "type": "function"
    },
    {
      "inputs": [],
      "name": "maxSupply",
      "outputs": [
        {
          "internalType": "uint256",
          "name": "",
          "type": "uint256"
        }
      ],
      "stateMutability": "view",
      "type": "function"
    },
    {
      "inputs": [
        {
          "internalType": "address",
          "name": "_to",
          "type": "address"
        },
        {
          "internalType": "uint256",
          "name": "_mintAmount",
          "type": "uint256"
        }
      ],
      "name": "mint",
      "outputs": [],
      "stateMutability": "payable",
      "type": "function"
    },
    {
      "inputs": [],
      "name": "name",
      "outputs": [
        {
          "internalType": "string",
          "name": "",
          "type": "string"
        }
      ],
      "stateMutability": "view",
      "type": "function"
    },
    {
      "inputs": [],
      "name": "owner",
      "outputs": [
        {
          "internalType": "address",
          "name": "",
          "type": "address"
        }
      ],
      "stateMutability": "view",
      "type": "function"
    },
    {
      "inputs": [
        {
          "internalType": "uint256",
          "name": "tokenId",
          "type": "uint256"
        }
      ],
      "name": "ownerOf",
      "outputs": [
        {
          "internalType": "address",
          "name": "",
          "type": "address"
        }
      ],
      "stateMutability": "view",
      "type": "function"
    },
    {
      "inputs": [
        {
          "internalType": "bool",
          "name": "_state",
          "type": "bool"
        }
      ],
      "name": "pause",
      "outputs": [],
      "stateMutability": "nonpayable",
      "type": "function"
    },
    {
      "inputs": [],
      "name": "paused",
      "outputs": [
        {
          "internalType": "bool",
          "name": "",
          "type": "bool"
        }
      ],
      "stateMutability": "view",
      "type": "function"
    },
    {
      "inputs": [],
      "name": "renounceOwnership",
      "outputs": [],
      "stateMutability": "nonpayable",
      "type": "function"
    },
    {
      "inputs": [
        {
          "internalType": "address",
          "name": "from",
          "type": "address"
        },
        {
          "internalType": "address",
          "name": "to",
          "type": "address"
        },
        {
          "internalType": "uint256",
          "name": "tokenId",
          "type": "uint256"
        }
      ],
      "name": "safeTransferFrom",
      "outputs": [],
      "stateMutability": "nonpayable",
      "type": "function"
    },
    {
      "inputs": [
        {
          "internalType": "address",
          "name": "from",
          "type": "address"
        },
        {
          "internalType": "address",
          "name": "to",
          "type": "address"
        },
        {
          "internalType": "uint256",
          "name": "tokenId",
          "type": "uint256"
        },
        {
          "internalType": "bytes",
          "name": "_data",
          "type": "bytes"
        }
      ],
      "name": "safeTransferFrom",
      "outputs": [],
      "stateMutability": "nonpayable",
      "type": "function"
    },
    {
      "inputs": [
        {
          "internalType": "address",
          "name": "operator",
          "type": "address"
        },
        {
          "internalType": "bool",
          "name": "approved",
          "type": "bool"
        }
      ],
      "name": "setApprovalForAll",
      "outputs": [],
      "stateMutability": "nonpayable",
      "type": "function"
    },
    {
      "inputs": [
        {
          "internalType": "string",
          "name": "_newBaseExtension",
          "type": "string"
        }
      ],
      "name": "setBaseExtension",
      "outputs": [],
      "stateMutability": "nonpayable",
      "type": "function"
    },
    {
      "inputs": [
        {
          "internalType": "string",
          "name": "_newBaseURI",
          "type": "string"
        }
      ],
      "name": "setBaseURI",
      "outputs": [],
      "stateMutability": "nonpayable",
      "type": "function"
    },
    {
      "inputs": [
        {
          "internalType": "uint256",
          "name": "_newmaxMintAmount",
          "type": "uint256"
        }
      ],
      "name": "setmaxMintAmount",
      "outputs": [],
      "stateMutability": "nonpayable",
      "type": "function"
    },
    {
      "inputs": [
        {
          "internalType": "bytes4",
          "name": "interfaceId",
          "type": "bytes4"
        }
      ],
      "name": "supportsInterface",
      "outputs": [
        {
          "internalType": "bool",
          "name": "",
          "type": "bool"
        }
      ],
      "stateMutability": "view",
      "type": "function"
    },
    {
      "inputs": [],
      "name": "symbol",
      "outputs": [
        {
          "internalType": "string",
          "name": "",
          "type": "string"
        }
      ],
      "stateMutability": "view",
      "type": "function"
    },
    {
      "inputs": [
        {
          "internalType": "uint256",
          "name": "index",
          "type": "uint256"
        }
      ],
      "name": "tokenByIndex",
      "outputs": [
        {
          "internalType": "uint256",
          "name": "",
          "type": "uint256"
        }
      ],
      "stateMutability": "view",
      "type": "function"
    },
    {
      "inputs": [
        {
          "internalType": "address",
          "name": "owner",
          "type": "address"
        },
        {
          "internalType": "uint256",
          "name": "index",
          "type": "uint256"
        }
      ],
      "name": "tokenOfOwnerByIndex",
      "outputs": [
        {
          "internalType": "uint256",
          "name": "",
          "type": "uint256"
        }
      ],
      "stateMutability": "view",
      "type": "function"
    },
    {
      "inputs": [
        {
          "internalType": "uint256",
          "name": "tokenId",
          "type": "uint256"
        }
      ],
      "name": "tokenURI",
      "outputs": [
        {
          "internalType": "string",
          "name": "",
          "type": "string"
        }
      ],
      "stateMutability": "view",
      "type": "function"
    },
    {
      "inputs": [],
      "name": "totalSupply",
      "outputs": [
        {
          "internalType": "uint256",
          "name": "",
          "type": "uint256"
        }
      ],
      "stateMutability": "view",
      "type": "function"
    },
    {
      "inputs": [
        {
          "internalType": "address",
          "name": "from",
          "type": "address"
        },
        {
          "internalType": "address",
          "name": "to",
          "type": "address"
        },
        {
          "internalType": "uint256",
          "name": "tokenId",
          "type": "uint256"
        }
      ],
      "name": "transferFrom",
      "outputs": [],
      "stateMutability": "nonpayable",
      "type": "function"
    },
    {
      "inputs": [
        {
          "internalType": "address",
          "name": "newOwner",
          "type": "address"
        }
      ],
      "name": "transferOwnership",
      "outputs": [],
      "stateMutability": "nonpayable",
      "type": "function"
    },
    {
      "inputs": [
        {
          "internalType": "address",
          "name": "_owner",
          "type": "address"
        }
      ],
      "name": "walletOfOwner",
      "outputs": [
        {
          "internalType": "uint256[]",
          "name": "",
          "type": "uint256[]"
        }
      ],
      "stateMutability": "view",
      "type": "function"
    },
    {
      "inputs": [],
      "name": "withdraw",
      "outputs": [],
      "stateMutability": "payable",
      "type": "function"
    }
  ],
  "bytecode": "0x60806040526040518060400160405280600581526020017f2e6a736f6e000000000000000000000000000000000000000000000000000000815250600c90805190602001906200005192919062000224565b5066038d7ea4c68000600d556064600e556001600f556000601060006101000a81548160ff0219169083151502179055503480156200008f57600080fd5b506040518060400160405280600881526020017f62696f46694e46540000000000000000000000000000000000000000000000008152506040518060400160405280600881526020017f62696f46694e465400000000000000000000000000000000000000000000000081525081600090805190602001906200011492919062000224565b5080600190805190602001906200012d92919062000224565b50505062000150620001446200015660201b60201c565b6200015e60201b60201c565b62000339565b600033905090565b6000600a60009054906101000a900473ffffffffffffffffffffffffffffffffffffffff16905081600a60006101000a81548173ffffffffffffffffffffffffffffffffffffffff021916908373ffffffffffffffffffffffffffffffffffffffff1602179055508173ffffffffffffffffffffffffffffffffffffffff168173ffffffffffffffffffffffffffffffffffffffff167f8be0079c531659141344cd1fd0a4f28419497f9722a3daafe3b4186f6b6457e060405160405180910390a35050565b8280546200023290620002d4565b90600052602060002090601f016020900481019282620002565760008555620002a2565b82601f106200027157805160ff1916838001178555620002a2565b82800160010185558215620002a2579182015b82811115620002a157825182559160200191906001019062000284565b5b509050620002b19190620002b5565b5090565b5b80821115620002d0576000816000905550600101620002b6565b5090565b60006002820490506001821680620002ed57607f821691505b602082108114156200030457620003036200030a565b5b50919050565b7f4e487b7100000000000000000000000000000000000000000000000000000000600052602260045260246000fd5b613df380620003496000396000f3fe6080604052600436106101e35760003560e01c80635c975abb11610102578063a22cb46511610095578063d5abeb0111610064578063d5abeb01146106d8578063da3ef23f14610703578063e985e9c51461072c578063f2fde38b14610769576101e3565b8063a22cb4651461061e578063b88d4fde14610647578063c668286214610670578063c87b56dd1461069b576101e3565b8063715018a6116100d1578063715018a6146105885780637f00c7a61461059f5780638da5cb5b146105c857806395d89b41146105f3576101e3565b80635c975abb146104b85780636352211e146104e35780636c0360eb1461052057806370a082311461054b576101e3565b806323b872dd1161017a57806342842e0e1161014957806342842e0e146103ec578063438b6300146104155780634f6ccce71461045257806355f804b31461048f576101e3565b806323b872dd146103605780632f745c59146103895780633ccfd60b146103c657806340c10f19146103d0576101e3565b8063095ea7b3116101b6578063095ea7b3146102b657806313faede6146102df57806318160ddd1461030a578063239c70ae14610335576101e3565b806301ffc9a7146101e857806302329a291461022557806306fdde031461024e578063081812fc14610279575b600080fd5b3480156101f457600080fd5b5061020f600480360381019061020a9190612a51565b610792565b60405161021c9190613048565b60405180910390f35b34801561023157600080fd5b5061024c60048036038101906102479190612a24565b61080c565b005b34801561025a57600080fd5b50610263610831565b6040516102709190613063565b60405180910390f35b34801561028557600080fd5b506102a0600480360381019061029b9190612af4565b6108c3565b6040516102ad9190612fbf565b60405180910390f35b3480156102c257600080fd5b506102dd60048036038101906102d891906129e4565b610948565b005b3480156102eb57600080fd5b506102f4610a60565b60405161030191906132e5565b60405180910390f35b34801561031657600080fd5b5061031f610a66565b60405161032c91906132e5565b60405180910390f35b34801561034157600080fd5b5061034a610a73565b60405161035791906132e5565b60405180910390f35b34801561036c57600080fd5b50610387600480360381019061038291906128ce565b610a79565b005b34801561039557600080fd5b506103b060048036038101906103ab91906129e4565b610ad9565b6040516103bd91906132e5565b60405180910390f35b6103ce610b7e565b005b6103ea60048036038101906103e591906129e4565b610bc6565b005b3480156103f857600080fd5b50610413600480360381019061040e91906128ce565b610ce8565b005b34801561042157600080fd5b5061043c60048036038101906104379190612861565b610d08565b6040516104499190613026565b60405180910390f35b34801561045e57600080fd5b5061047960048036038101906104749190612af4565b610db6565b60405161048691906132e5565b60405180910390f35b34801561049b57600080fd5b506104b660048036038101906104b19190612aab565b610e27565b005b3480156104c457600080fd5b506104cd610e49565b6040516104da9190613048565b60405180910390f35b3480156104ef57600080fd5b5061050a60048036038101906105059190612af4565b610e5c565b6040516105179190612fbf565b60405180910390f35b34801561052c57600080fd5b50610535610f0e565b6040516105429190613063565b60405180910390f35b34801561055757600080fd5b50610572600480360381019061056d9190612861565b610f9c565b60405161057f91906132e5565b60405180910390f35b34801561059457600080fd5b5061059d611054565b005b3480156105ab57600080fd5b506105c660048036038101906105c19190612af4565b611068565b005b3480156105d457600080fd5b506105dd61107a565b6040516105ea9190612fbf565b60405180910390f35b3480156105ff57600080fd5b506106086110a4565b6040516106159190613063565b60405180910390f35b34801561062a57600080fd5b50610645600480360381019061064091906129a4565b611136565b005b34801561065357600080fd5b5061066e60048036038101906106699190612921565b6112b7565b005b34801561067c57600080fd5b50610685611319565b6040516106929190613063565b60405180910390f35b3480156106a757600080fd5b506106c260048036038101906106bd9190612af4565b6113a7565b6040516106cf9190613063565b60405180910390f35b3480156106e457600080fd5b506106ed611451565b6040516106fa91906132e5565b60405180910390f35b34801561070f57600080fd5b5061072a60048036038101906107259190612aab565b611457565b005b34801561073857600080fd5b50610753600480360381019061074e919061288e565b611479565b6040516107609190613048565b60405180910390f35b34801561077557600080fd5b50610790600480360381019061078b9190612861565b61150d565b005b60007f780e9d63000000000000000000000000000000000000000000000000000000007bffffffffffffffffffffffffffffffffffffffffffffffffffffffff1916827bffffffffffffffffffffffffffffffffffffffffffffffffffffffff19161480610805575061080482611591565b5b9050919050565b610814611673565b80601060006101000a81548160ff02191690831515021790555050565b606060008054610840906135e3565b80601f016020809104026020016040519081016040528092919081815260200182805461086c906135e3565b80156108b95780601f1061088e576101008083540402835291602001916108b9565b820191906000526020600020905b81548152906001019060200180831161089c57829003601f168201915b5050505050905090565b60006108ce826116f1565b61090d576040517f08c379a0000000000000000000000000000000000000000000000000000000008152600401610904906131e5565b60405180910390fd5b6004600083815260200190815260200160002060009054906101000a900473ffffffffffffffffffffffffffffffffffffffff169050919050565b600061095382610e5c565b90508073ffffffffffffffffffffffffffffffffffffffff168373ffffffffffffffffffffffffffffffffffffffff1614156109c4576040517f08c379a00000000000000000000000000000000000000000000000000000000081526004016109bb90613265565b60405180910390fd5b8073ffffffffffffffffffffffffffffffffffffffff166109e361175d565b73ffffffffffffffffffffffffffffffffffffffff161480610a125750610a1181610a0c61175d565b611479565b5b610a51576040517f08c379a0000000000000000000000000000000000000000000000000000000008152600401610a4890613165565b60405180910390fd5b610a5b8383611765565b505050565b600d5481565b6000600880549050905090565b600f5481565b610a8a610a8461175d565b8261181e565b610ac9576040517f08c379a0000000000000000000000000000000000000000000000000000000008152600401610ac090613285565b60405180910390fd5b610ad48383836118fc565b505050565b6000610ae483610f9c565b8210610b25576040517f08c379a0000000000000000000000000000000000000000000000000000000008152600401610b1c90613085565b60405180910390fd5b600660008473ffffffffffffffffffffffffffffffffffffffff1673ffffffffffffffffffffffffffffffffffffffff168152602001908152602001600020600083815260200190815260200160002054905092915050565b610b86611673565b3373ffffffffffffffffffffffffffffffffffffffff166108fc479081150290604051600060405180830381858888f19350505050610bc457600080fd5b565b6000610bd0610a66565b9050601060009054906101000a900460ff1615610bec57600080fd5b60008211610bf957600080fd5b600f54821115610c0857600080fd5b600e548282610c179190613418565b1115610c2257600080fd5b610c2a61107a565b73ffffffffffffffffffffffffffffffffffffffff163373ffffffffffffffffffffffffffffffffffffffff1614610cac5781600d54610c6a919061349f565b3414610cab576040517f08c379a0000000000000000000000000000000000000000000000000000000008152600401610ca2906132a5565b60405180910390fd5b5b6000600190505b828111610ce257610ccf848284610cca9190613418565b611b58565b8080610cda90613646565b915050610cb3565b50505050565b610d03838383604051806020016040528060008152506112b7565b505050565b60606000610d1583610f9c565b905060008167ffffffffffffffff811115610d3357610d326137ab565b5b604051908082528060200260200182016040528015610d615781602001602082028036833780820191505090505b50905060005b82811015610dab57610d798582610ad9565b828281518110610d8c57610d8b61377c565b5b6020026020010181815250508080610da390613646565b915050610d67565b508092505050919050565b6000610dc0610a66565b8210610e01576040517f08c379a0000000000000000000000000000000000000000000000000000000008152600401610df8906132c5565b60405180910390fd5b60088281548110610e1557610e1461377c565b5b90600052602060002001549050919050565b610e2f611673565b80600b9080519060200190610e45929190612675565b5050565b601060009054906101000a900460ff1681565b6000806002600084815260200190815260200160002060009054906101000a900473ffffffffffffffffffffffffffffffffffffffff169050600073ffffffffffffffffffffffffffffffffffffffff168173ffffffffffffffffffffffffffffffffffffffff161415610f05576040517f08c379a0000000000000000000000000000000000000000000000000000000008152600401610efc906131a5565b60405180910390fd5b80915050919050565b600b8054610f1b906135e3565b80601f0160208091040260200160405190810160405280929190818152602001828054610f47906135e3565b8015610f945780601f10610f6957610100808354040283529160200191610f94565b820191906000526020600020905b815481529060010190602001808311610f7757829003601f168201915b505050505081565b60008073ffffffffffffffffffffffffffffffffffffffff168273ffffffffffffffffffffffffffffffffffffffff16141561100d576040517f08c379a000000000000000000000000000000000000000000000000000000000815260040161100490613185565b60405180910390fd5b600360008373ffffffffffffffffffffffffffffffffffffffff1673ffffffffffffffffffffffffffffffffffffffff168152602001908152602001600020549050919050565b61105c611673565b6110666000611b76565b565b611070611673565b80600f8190555050565b6000600a60009054906101000a900473ffffffffffffffffffffffffffffffffffffffff16905090565b6060600180546110b3906135e3565b80601f01602080910402602001604051908101604052809291908181526020018280546110df906135e3565b801561112c5780601f106111015761010080835404028352916020019161112c565b820191906000526020600020905b81548152906001019060200180831161110f57829003601f168201915b5050505050905090565b61113e61175d565b73ffffffffffffffffffffffffffffffffffffffff168273ffffffffffffffffffffffffffffffffffffffff1614156111ac576040517f08c379a00000000000000000000000000000000000000000000000000000000081526004016111a390613125565b60405180910390fd5b80600560006111b961175d565b73ffffffffffffffffffffffffffffffffffffffff1673ffffffffffffffffffffffffffffffffffffffff16815260200190815260200160002060008473ffffffffffffffffffffffffffffffffffffffff1673ffffffffffffffffffffffffffffffffffffffff16815260200190815260200160002060006101000a81548160ff0219169083151502179055508173ffffffffffffffffffffffffffffffffffffffff1661126661175d565b73ffffffffffffffffffffffffffffffffffffffff167f17307eab39ab6107e8899845ad3d59bd9653f200f220920489ca2b5937696c31836040516112ab9190613048565b60405180910390a35050565b6112c86112c261175d565b8361181e565b611307576040517f08c379a00000000000000000000000000000000000000000000000000000000081526004016112fe90613285565b60405180910390fd5b61131384848484611c3c565b50505050565b600c8054611326906135e3565b80601f0160208091040260200160405190810160405280929190818152602001828054611352906135e3565b801561139f5780601f106113745761010080835404028352916020019161139f565b820191906000526020600020905b81548152906001019060200180831161138257829003601f168201915b505050505081565b60606113b2826116f1565b6113f1576040517f08c379a00000000000000000000000000000000000000000000000000000000081526004016113e890613245565b60405180910390fd5b60006113fb611c98565b9050600081511161141b5760405180602001604052806000815250611449565b8061142584611cb8565b600c60405160200161143993929190612f8e565b6040516020818303038152906040525b915050919050565b600e5481565b61145f611673565b80600c9080519060200190611475929190612675565b5050565b6000600560008473ffffffffffffffffffffffffffffffffffffffff1673ffffffffffffffffffffffffffffffffffffffff16815260200190815260200160002060008373ffffffffffffffffffffffffffffffffffffffff1673ffffffffffffffffffffffffffffffffffffffff16815260200190815260200160002060009054906101000a900460ff16905092915050565b611515611673565b600073ffffffffffffffffffffffffffffffffffffffff168173ffffffffffffffffffffffffffffffffffffffff161415611585576040517f08c379a000000000000000000000000000000000000000000000000000000000815260040161157c906130c5565b60405180910390fd5b61158e81611b76565b50565b60007f80ac58cd000000000000000000000000000000000000000000000000000000007bffffffffffffffffffffffffffffffffffffffffffffffffffffffff1916827bffffffffffffffffffffffffffffffffffffffffffffffffffffffff1916148061165c57507f5b5e139f000000000000000000000000000000000000000000000000000000007bffffffffffffffffffffffffffffffffffffffffffffffffffffffff1916827bffffffffffffffffffffffffffffffffffffffffffffffffffffffff1916145b8061166c575061166b82611e19565b5b9050919050565b61167b61175d565b73ffffffffffffffffffffffffffffffffffffffff1661169961107a565b73ffffffffffffffffffffffffffffffffffffffff16146116ef576040517f08c379a00000000000000000000000000000000000000000000000000000000081526004016116e690613205565b60405180910390fd5b565b60008073ffffffffffffffffffffffffffffffffffffffff166002600084815260200190815260200160002060009054906101000a900473ffffffffffffffffffffffffffffffffffffffff1673ffffffffffffffffffffffffffffffffffffffff1614159050919050565b600033905090565b816004600083815260200190815260200160002060006101000a81548173ffffffffffffffffffffffffffffffffffffffff021916908373ffffffffffffffffffffffffffffffffffffffff160217905550808273ffffffffffffffffffffffffffffffffffffffff166117d883610e5c565b73ffffffffffffffffffffffffffffffffffffffff167f8c5be1e5ebec7d5bd14f71427d1e84f3dd0314c0f7b2291e5b200ac8c7c3b92560405160405180910390a45050565b6000611829826116f1565b611868576040517f08c379a000000000000000000000000000000000000000000000000000000000815260040161185f90613145565b60405180910390fd5b600061187383610e5c565b90508073ffffffffffffffffffffffffffffffffffffffff168473ffffffffffffffffffffffffffffffffffffffff1614806118e257508373ffffffffffffffffffffffffffffffffffffffff166118ca846108c3565b73ffffffffffffffffffffffffffffffffffffffff16145b806118f357506118f28185611479565b5b91505092915050565b8273ffffffffffffffffffffffffffffffffffffffff1661191c82610e5c565b73ffffffffffffffffffffffffffffffffffffffff1614611972576040517f08c379a000000000000000000000000000000000000000000000000000000000815260040161196990613225565b60405180910390fd5b600073ffffffffffffffffffffffffffffffffffffffff168273ffffffffffffffffffffffffffffffffffffffff1614156119e2576040517f08c379a00000000000000000000000000000000000000000000000000000000081526004016119d990613105565b60405180910390fd5b6119ed838383611e83565b6119f8600082611765565b6001600360008573ffffffffffffffffffffffffffffffffffffffff1673ffffffffffffffffffffffffffffffffffffffff1681526020019081526020016000206000828254611a4891906134f9565b925050819055506001600360008473ffffffffffffffffffffffffffffffffffffffff1673ffffffffffffffffffffffffffffffffffffffff1681526020019081526020016000206000828254611a9f9190613418565b92505081905550816002600083815260200190815260200160002060006101000a81548173ffffffffffffffffffffffffffffffffffffffff021916908373ffffffffffffffffffffffffffffffffffffffff160217905550808273ffffffffffffffffffffffffffffffffffffffff168473ffffffffffffffffffffffffffffffffffffffff167fddf252ad1be2c89b69c2b068fc378daa952ba7f163c4a11628f55a4df523b3ef60405160405180910390a4505050565b611b72828260405180602001604052806000815250611f97565b5050565b6000600a60009054906101000a900473ffffffffffffffffffffffffffffffffffffffff16905081600a60006101000a81548173ffffffffffffffffffffffffffffffffffffffff021916908373ffffffffffffffffffffffffffffffffffffffff1602179055508173ffffffffffffffffffffffffffffffffffffffff168173ffffffffffffffffffffffffffffffffffffffff167f8be0079c531659141344cd1fd0a4f28419497f9722a3daafe3b4186f6b6457e060405160405180910390a35050565b611c478484846118fc565b611c5384848484611ff2565b611c92576040517f08c379a0000000000000000000000000000000000000000000000000000000008152600401611c89906130a5565b60405180910390fd5b50505050565b6060604051806080016040528060438152602001613d7b60439139905090565b60606000821415611d00576040518060400160405280600181526020017f30000000000000000000000000000000000000000000000000000000000000008152509050611e14565b600082905060005b60008214611d32578080611d1b90613646565b915050600a82611d2b919061346e565b9150611d08565b60008167ffffffffffffffff811115611d4e57611d4d6137ab565b5b6040519080825280601f01601f191660200182016040528015611d805781602001600182028036833780820191505090505b5090505b60008514611e0d57600182611d9991906134f9565b9150600a85611da8919061368f565b6030611db49190613418565b60f81b818381518110611dca57611dc961377c565b5b60200101907effffffffffffffffffffffffffffffffffffffffffffffffffffffffffffff1916908160001a905350600a85611e06919061346e565b9450611d84565b8093505050505b919050565b60007f01ffc9a7000000000000000000000000000000000000000000000000000000007bffffffffffffffffffffffffffffffffffffffffffffffffffffffff1916827bffffffffffffffffffffffffffffffffffffffffffffffffffffffff1916149050919050565b611e8e838383612189565b600073ffffffffffffffffffffffffffffffffffffffff168373ffffffffffffffffffffffffffffffffffffffff161415611ed157611ecc8161218e565b611f10565b8173ffffffffffffffffffffffffffffffffffffffff168373ffffffffffffffffffffffffffffffffffffffff1614611f0f57611f0e83826121d7565b5b5b600073ffffffffffffffffffffffffffffffffffffffff168273ffffffffffffffffffffffffffffffffffffffff161415611f5357611f4e81612344565b611f92565b8273ffffffffffffffffffffffffffffffffffffffff168273ffffffffffffffffffffffffffffffffffffffff1614611f9157611f908282612415565b5b5b505050565b611fa18383612494565b611fae6000848484611ff2565b611fed576040517f08c379a0000000000000000000000000000000000000000000000000000000008152600401611fe4906130a5565b60405180910390fd5b505050565b60006120138473ffffffffffffffffffffffffffffffffffffffff16612662565b1561217c578373ffffffffffffffffffffffffffffffffffffffff1663150b7a0261203c61175d565b8786866040518563ffffffff1660e01b815260040161205e9493929190612fda565b602060405180830381600087803b15801561207857600080fd5b505af19250505080156120a957506040513d601f19601f820116820180604052508101906120a69190612a7e565b60015b61212c573d80600081146120d9576040519150601f19603f3d011682016040523d82523d6000602084013e6120de565b606091505b50600081511415612124576040517f08c379a000000000000000000000000000000000000000000000000000000000815260040161211b906130a5565b60405180910390fd5b805181602001fd5b63150b7a0260e01b7bffffffffffffffffffffffffffffffffffffffffffffffffffffffff1916817bffffffffffffffffffffffffffffffffffffffffffffffffffffffff191614915050612181565b600190505b949350505050565b505050565b6008805490506009600083815260200190815260200160002081905550600881908060018154018082558091505060019003906000526020600020016000909190919091505550565b600060016121e484610f9c565b6121ee91906134f9565b90506000600760008481526020019081526020016000205490508181146122d3576000600660008673ffffffffffffffffffffffffffffffffffffffff1673ffffffffffffffffffffffffffffffffffffffff168152602001908152602001600020600084815260200190815260200160002054905080600660008773ffffffffffffffffffffffffffffffffffffffff1673ffffffffffffffffffffffffffffffffffffffff168152602001908152602001600020600084815260200190815260200160002081905550816007600083815260200190815260200160002081905550505b6007600084815260200190815260200160002060009055600660008573ffffffffffffffffffffffffffffffffffffffff1673ffffffffffffffffffffffffffffffffffffffff16815260200190815260200160002060008381526020019081526020016000206000905550505050565b6000600160088054905061235891906134f9565b90506000600960008481526020019081526020016000205490506000600883815481106123885761238761377c565b5b9060005260206000200154905080600883815481106123aa576123a961377c565b5b9060005260206000200181905550816009600083815260200190815260200160002081905550600960008581526020019081526020016000206000905560088054806123f9576123f861374d565b5b6001900381819060005260206000200160009055905550505050565b600061242083610f9c565b905081600660008573ffffffffffffffffffffffffffffffffffffffff1673ffffffffffffffffffffffffffffffffffffffff168152602001908152602001600020600083815260200190815260200160002081905550806007600084815260200190815260200160002081905550505050565b600073ffffffffffffffffffffffffffffffffffffffff168273ffffffffffffffffffffffffffffffffffffffff161415612504576040517f08c379a00000000000000000000000000000000000000000000000000000000081526004016124fb906131c5565b60405180910390fd5b61250d816116f1565b1561254d576040517f08c379a0000000000000000000000000000000000000000000000000000000008152600401612544906130e5565b60405180910390fd5b61255960008383611e83565b6001600360008473ffffffffffffffffffffffffffffffffffffffff1673ffffffffffffffffffffffffffffffffffffffff16815260200190815260200160002060008282546125a99190613418565b92505081905550816002600083815260200190815260200160002060006101000a81548173ffffffffffffffffffffffffffffffffffffffff021916908373ffffffffffffffffffffffffffffffffffffffff160217905550808273ffffffffffffffffffffffffffffffffffffffff16600073ffffffffffffffffffffffffffffffffffffffff167fddf252ad1be2c89b69c2b068fc378daa952ba7f163c4a11628f55a4df523b3ef60405160405180910390a45050565b600080823b905060008111915050919050565b828054612681906135e3565b90600052602060002090601f0160209004810192826126a357600085556126ea565b82601f106126bc57805160ff19168380011785556126ea565b828001600101855582156126ea579182015b828111156126e95782518255916020019190600101906126ce565b5b5090506126f791906126fb565b5090565b5b808211156127145760008160009055506001016126fc565b5090565b600061272b61272684613325565b613300565b905082815260208101848484011115612747576127466137df565b5b6127528482856135a1565b509392505050565b600061276d61276884613356565b613300565b905082815260208101848484011115612789576127886137df565b5b6127948482856135a1565b509392505050565b6000813590506127ab81613d1e565b92915050565b6000813590506127c081613d35565b92915050565b6000813590506127d581613d4c565b92915050565b6000815190506127ea81613d4c565b92915050565b600082601f830112612805576128046137da565b5b8135612815848260208601612718565b91505092915050565b600082601f830112612833576128326137da565b5b813561284384826020860161275a565b91505092915050565b60008135905061285b81613d63565b92915050565b600060208284031215612877576128766137e9565b5b60006128858482850161279c565b91505092915050565b600080604083850312156128a5576128a46137e9565b5b60006128b38582860161279c565b92505060206128c48582860161279c565b9150509250929050565b6000806000606084860312156128e7576128e66137e9565b5b60006128f58682870161279c565b93505060206129068682870161279c565b92505060406129178682870161284c565b9150509250925092565b6000806000806080858703121561293b5761293a6137e9565b5b60006129498782880161279c565b945050602061295a8782880161279c565b935050604061296b8782880161284c565b925050606085013567ffffffffffffffff81111561298c5761298b6137e4565b5b612998878288016127f0565b91505092959194509250565b600080604083850312156129bb576129ba6137e9565b5b60006129c98582860161279c565b92505060206129da858286016127b1565b9150509250929050565b600080604083850312156129fb576129fa6137e9565b5b6000612a098582860161279c565b9250506020612a1a8582860161284c565b9150509250929050565b600060208284031215612a3a57612a396137e9565b5b6000612a48848285016127b1565b91505092915050565b600060208284031215612a6757612a666137e9565b5b6000612a75848285016127c6565b91505092915050565b600060208284031215612a9457612a936137e9565b5b6000612aa2848285016127db565b91505092915050565b600060208284031215612ac157612ac06137e9565b5b600082013567ffffffffffffffff811115612adf57612ade6137e4565b5b612aeb8482850161281e565b91505092915050565b600060208284031215612b0a57612b096137e9565b5b6000612b188482850161284c565b91505092915050565b6000612b2d8383612f70565b60208301905092915050565b612b428161352d565b82525050565b6000612b53826133ac565b612b5d81856133da565b9350612b6883613387565b8060005b83811015612b99578151612b808882612b21565b9750612b8b836133cd565b925050600181019050612b6c565b5085935050505092915050565b612baf8161353f565b82525050565b6000612bc0826133b7565b612bca81856133eb565b9350612bda8185602086016135b0565b612be3816137ee565b840191505092915050565b6000612bf9826133c2565b612c0381856133fc565b9350612c138185602086016135b0565b612c1c816137ee565b840191505092915050565b6000612c32826133c2565b612c3c818561340d565b9350612c4c8185602086016135b0565b80840191505092915050565b60008154612c65816135e3565b612c6f818661340d565b94506001821660008114612c8a5760018114612c9b57612cce565b60ff19831686528186019350612cce565b612ca485613397565b60005b83811015612cc657815481890152600182019150602081019050612ca7565b838801955050505b50505092915050565b6000612ce4602b836133fc565b9150612cef826137ff565b604082019050919050565b6000612d076032836133fc565b9150612d128261384e565b604082019050919050565b6000612d2a6026836133fc565b9150612d358261389d565b604082019050919050565b6000612d4d601c836133fc565b9150612d58826138ec565b602082019050919050565b6000612d706024836133fc565b9150612d7b82613915565b604082019050919050565b6000612d936019836133fc565b9150612d9e82613964565b602082019050919050565b6000612db6602c836133fc565b9150612dc18261398d565b604082019050919050565b6000612dd96038836133fc565b9150612de4826139dc565b604082019050919050565b6000612dfc602a836133fc565b9150612e0782613a2b565b604082019050919050565b6000612e1f6029836133fc565b9150612e2a82613a7a565b604082019050919050565b6000612e426020836133fc565b9150612e4d82613ac9565b602082019050919050565b6000612e65602c836133fc565b9150612e7082613af2565b604082019050919050565b6000612e886020836133fc565b9150612e9382613b41565b602082019050919050565b6000612eab6029836133fc565b9150612eb682613b6a565b604082019050919050565b6000612ece602f836133fc565b9150612ed982613bb9565b604082019050919050565b6000612ef16021836133fc565b9150612efc82613c08565b604082019050919050565b6000612f146031836133fc565b9150612f1f82613c57565b604082019050919050565b6000612f376018836133fc565b9150612f4282613ca6565b602082019050919050565b6000612f5a602c836133fc565b9150612f6582613ccf565b604082019050919050565b612f7981613597565b82525050565b612f8881613597565b82525050565b6000612f9a8286612c27565b9150612fa68285612c27565b9150612fb28284612c58565b9150819050949350505050565b6000602082019050612fd46000830184612b39565b92915050565b6000608082019050612fef6000830187612b39565b612ffc6020830186612b39565b6130096040830185612f7f565b818103606083015261301b8184612bb5565b905095945050505050565b600060208201905081810360008301526130408184612b48565b905092915050565b600060208201905061305d6000830184612ba6565b92915050565b6000602082019050818103600083015261307d8184612bee565b905092915050565b6000602082019050818103600083015261309e81612cd7565b9050919050565b600060208201905081810360008301526130be81612cfa565b9050919050565b600060208201905081810360008301526130de81612d1d565b9050919050565b600060208201905081810360008301526130fe81612d40565b9050919050565b6000602082019050818103600083015261311e81612d63565b9050919050565b6000602082019050818103600083015261313e81612d86565b9050919050565b6000602082019050818103600083015261315e81612da9565b9050919050565b6000602082019050818103600083015261317e81612dcc565b9050919050565b6000602082019050818103600083015261319e81612def565b9050919050565b600060208201905081810360008301526131be81612e12565b9050919050565b600060208201905081810360008301526131de81612e35565b9050919050565b600060208201905081810360008301526131fe81612e58565b9050919050565b6000602082019050818103600083015261321e81612e7b565b9050919050565b6000602082019050818103600083015261323e81612e9e565b9050919050565b6000602082019050818103600083015261325e81612ec1565b9050919050565b6000602082019050818103600083015261327e81612ee4565b9050919050565b6000602082019050818103600083015261329e81612f07565b9050919050565b600060208201905081810360008301526132be81612f2a565b9050919050565b600060208201905081810360008301526132de81612f4d565b9050919050565b60006020820190506132fa6000830184612f7f565b92915050565b600061330a61331b565b90506133168282613615565b919050565b6000604051905090565b600067ffffffffffffffff8211156133405761333f6137ab565b5b613349826137ee565b9050602081019050919050565b600067ffffffffffffffff821115613371576133706137ab565b5b61337a826137ee565b9050602081019050919050565b6000819050602082019050919050565b60008190508160005260206000209050919050565b600081519050919050565b600081519050919050565b600081519050919050565b6000602082019050919050565b600082825260208201905092915050565b600082825260208201905092915050565b600082825260208201905092915050565b600081905092915050565b600061342382613597565b915061342e83613597565b9250827fffffffffffffffffffffffffffffffffffffffffffffffffffffffffffffffff03821115613463576134626136c0565b5b828201905092915050565b600061347982613597565b915061348483613597565b925082613494576134936136ef565b5b828204905092915050565b60006134aa82613597565b91506134b583613597565b9250817fffffffffffffffffffffffffffffffffffffffffffffffffffffffffffffffff04831182151516156134ee576134ed6136c0565b5b828202905092915050565b600061350482613597565b915061350f83613597565b925082821015613522576135216136c0565b5b828203905092915050565b600061353882613577565b9050919050565b60008115159050919050565b60007fffffffff0000000000000000000000000000000000000000000000000000000082169050919050565b600073ffffffffffffffffffffffffffffffffffffffff82169050919050565b6000819050919050565b82818337600083830152505050565b60005b838110156135ce5780820151818401526020810190506135b3565b838111156135dd576000848401525b50505050565b600060028204905060018216806135fb57607f821691505b6020821081141561360f5761360e61371e565b5b50919050565b61361e826137ee565b810181811067ffffffffffffffff8211171561363d5761363c6137ab565b5b80604052505050565b600061365182613597565b91507fffffffffffffffffffffffffffffffffffffffffffffffffffffffffffffffff821415613684576136836136c0565b5b600182019050919050565b600061369a82613597565b91506136a583613597565b9250826136b5576136b46136ef565b5b828206905092915050565b7f4e487b7100000000000000000000000000000000000000000000000000000000600052601160045260246000fd5b7f4e487b7100000000000000000000000000000000000000000000000000000000600052601260045260246000fd5b7f4e487b7100000000000000000000000000000000000000000000000000000000600052602260045260246000fd5b7f4e487b7100000000000000000000000000000000000000000000000000000000600052603160045260246000fd5b7f4e487b7100000000000000000000000000000000000000000000000000000000600052603260045260246000fd5b7f4e487b7100000000000000000000000000000000000000000000000000000000600052604160045260246000fd5b600080fd5b600080fd5b600080fd5b600080fd5b6000601f19601f8301169050919050565b7f455243373231456e756d657261626c653a206f776e657220696e646578206f7560008201527f74206f6620626f756e6473000000000000000000000000000000000000000000602082015250565b7f4552433732313a207472616e7366657220746f206e6f6e20455243373231526560008201527f63656976657220696d706c656d656e7465720000000000000000000000000000602082015250565b7f4f776e61626c653a206e6577206f776e657220697320746865207a65726f206160008201527f6464726573730000000000000000000000000000000000000000000000000000602082015250565b7f4552433732313a20746f6b656e20616c7265616479206d696e74656400000000600082015250565b7f4552433732313a207472616e7366657220746f20746865207a65726f2061646460008201527f7265737300000000000000000000000000000000000000000000000000000000602082015250565b7f4552433732313a20617070726f766520746f2063616c6c657200000000000000600082015250565b7f4552433732313a206f70657261746f7220717565727920666f72206e6f6e657860008201527f697374656e7420746f6b656e0000000000000000000000000000000000000000602082015250565b7f4552433732313a20617070726f76652063616c6c6572206973206e6f74206f7760008201527f6e6572206e6f7220617070726f76656420666f7220616c6c0000000000000000602082015250565b7f4552433732313a2062616c616e636520717565727920666f7220746865207a6560008201527f726f206164647265737300000000000000000000000000000000000000000000602082015250565b7f4552433732313a206f776e657220717565727920666f72206e6f6e657869737460008201527f656e7420746f6b656e0000000000000000000000000000000000000000000000602082015250565b7f4552433732313a206d696e7420746f20746865207a65726f2061646472657373600082015250565b7f4552433732313a20617070726f76656420717565727920666f72206e6f6e657860008201527f697374656e7420746f6b656e0000000000000000000000000000000000000000602082015250565b7f4f776e61626c653a2063616c6c6572206973206e6f7420746865206f776e6572600082015250565b7f4552433732313a207472616e73666572206f6620746f6b656e2074686174206960008201527f73206e6f74206f776e0000000000000000000000000000000000000000000000602082015250565b7f4552433732314d657461646174613a2055524920717565727920666f72206e6f60008201527f6e6578697374656e7420746f6b656e0000000000000000000000000000000000602082015250565b7f4552433732313a20617070726f76616c20746f2063757272656e74206f776e6560008201527f7200000000000000000000000000000000000000000000000000000000000000602082015250565b7f4552433732313a207472616e736665722063616c6c6572206973206e6f74206f60008201527f776e6572206e6f7220617070726f766564000000000000000000000000000000602082015250565b7f4e65656420746f2073656e6420302e3038206574686572210000000000000000600082015250565b7f455243373231456e756d657261626c653a20676c6f62616c20696e646578206f60008201527f7574206f6620626f756e64730000000000000000000000000000000000000000602082015250565b613d278161352d565b8114613d3257600080fd5b50565b613d3e8161353f565b8114613d4957600080fd5b50565b613d558161354b565b8114613d6057600080fd5b50565b613d6c81613597565b8114613d7757600080fd5b5056fe697066733a2f2f6261667962656968766a726c76357333643732756174366c6d61696e637a717661666463706861356c7371766967677a367874376b616c663367652fa26469706673582212200bfd6c9b9db894c45de64b00ddb9c77e54954e80e454d736f06da117fc96c80864736f6c63430008070033",
  "linkReferences": {},
  "deployedLinkReferences": {}
}